{
  "contractName": "PresaleCrowdsale",
  "abi": [
    {
      "inputs": [
        {
          "internalType": "uint256",
          "name": "_rate",
          "type": "uint256"
        },
        {
          "internalType": "address payable",
          "name": "_wallet",
          "type": "address"
        },
        {
          "internalType": "contract ERC20",
          "name": "_token",
          "type": "address"
        },
        {
          "internalType": "address",
          "name": "_tokenWallet",
          "type": "address"
        }
      ],
      "payable": false,
      "stateMutability": "nonpayable",
      "type": "constructor"
    },
    {
      "anonymous": false,
      "inputs": [
        {
          "indexed": true,
          "internalType": "address",
          "name": "previousOwner",
          "type": "address"
        },
        {
          "indexed": true,
          "internalType": "address",
          "name": "newOwner",
          "type": "address"
        }
      ],
      "name": "OwnershipTransferred",
      "type": "event"
    },
    {
      "anonymous": false,
      "inputs": [
        {
          "indexed": true,
          "internalType": "address",
          "name": "purchaser",
          "type": "address"
        },
        {
          "indexed": true,
          "internalType": "address",
          "name": "beneficiary",
          "type": "address"
        },
        {
          "indexed": false,
          "internalType": "uint256",
          "name": "value",
          "type": "uint256"
        },
        {
          "indexed": false,
          "internalType": "uint256",
          "name": "amount",
          "type": "uint256"
        }
      ],
      "name": "TokensPurchased",
      "type": "event"
    },
    {
      "payable": true,
      "stateMutability": "payable",
      "type": "fallback"
    },
    {
      "constant": false,
      "inputs": [
        {
          "internalType": "address",
          "name": "beneficiary",
          "type": "address"
        }
      ],
      "name": "buyTokens",
      "outputs": [],
      "payable": true,
      "stateMutability": "payable",
      "type": "function"
    },
    {
      "constant": true,
      "inputs": [],
      "name": "isOwner",
      "outputs": [
        {
          "internalType": "bool",
          "name": "",
          "type": "bool"
        }
      ],
      "payable": false,
      "stateMutability": "view",
      "type": "function"
    },
    {
      "constant": true,
      "inputs": [],
      "name": "owner",
      "outputs": [
        {
          "internalType": "address",
          "name": "",
          "type": "address"
        }
      ],
      "payable": false,
      "stateMutability": "view",
      "type": "function"
    },
    {
      "constant": true,
      "inputs": [],
      "name": "rate",
      "outputs": [
        {
          "internalType": "uint256",
          "name": "",
          "type": "uint256"
        }
      ],
      "payable": false,
      "stateMutability": "view",
      "type": "function"
    },
    {
      "constant": true,
      "inputs": [],
      "name": "remainingTokens",
      "outputs": [
        {
          "internalType": "uint256",
          "name": "",
          "type": "uint256"
        }
      ],
      "payable": false,
      "stateMutability": "view",
      "type": "function"
    },
    {
      "constant": false,
      "inputs": [],
      "name": "renounceOwnership",
      "outputs": [],
      "payable": false,
      "stateMutability": "nonpayable",
      "type": "function"
    },
    {
      "constant": false,
      "inputs": [
        {
          "internalType": "uint256",
          "name": "newRate",
          "type": "uint256"
        }
      ],
      "name": "setRate",
      "outputs": [],
      "payable": false,
      "stateMutability": "nonpayable",
      "type": "function"
    },
    {
      "constant": true,
      "inputs": [],
      "name": "token",
      "outputs": [
        {
          "internalType": "contract IERC20",
          "name": "",
          "type": "address"
        }
      ],
      "payable": false,
      "stateMutability": "view",
      "type": "function"
    },
    {
      "constant": true,
      "inputs": [],
      "name": "tokenWallet",
      "outputs": [
        {
          "internalType": "address",
          "name": "",
          "type": "address"
        }
      ],
      "payable": false,
      "stateMutability": "view",
      "type": "function"
    },
    {
      "constant": false,
      "inputs": [
        {
          "internalType": "address",
          "name": "newOwner",
          "type": "address"
        }
      ],
      "name": "transferOwnership",
      "outputs": [],
      "payable": false,
      "stateMutability": "nonpayable",
      "type": "function"
    },
    {
      "constant": true,
      "inputs": [],
      "name": "wallet",
      "outputs": [
        {
          "internalType": "address payable",
          "name": "",
          "type": "address"
        }
      ],
      "payable": false,
      "stateMutability": "view",
      "type": "function"
    },
    {
      "constant": true,
      "inputs": [],
      "name": "weiRaised",
      "outputs": [
        {
          "internalType": "uint256",
          "name": "",
          "type": "uint256"
        }
      ],
      "payable": false,
      "stateMutability": "view",
      "type": "function"
    }
  ],
  "bytecode": "0x608060405234801561001057600080fd5b50604051610f5c380380610f5c8339818101604052608081101561003357600080fd5b508051602082015160408301516060909301516000805460ff191660011781559293919281908590859085906100706001600160e01b036102a616565b60008054610100600160a81b0319166101006001600160a01b038416908102919091178255604051929350917f8be0079c531659141344cd1fd0a4f28419497f9722a3daafe3b4186f6b6457e0908290a3506000831161013157604080517f08c379a000000000000000000000000000000000000000000000000000000000815260206004820152601460248201527f43726f776473616c653a20726174652069732030000000000000000000000000604482015290519081900360640190fd5b6001600160a01b038216610190576040517f08c379a0000000000000000000000000000000000000000000000000000000008152600401808060200182810382526025815260200180610f376025913960400191505060405180910390fd5b6001600160a01b0381166101ef576040517f08c379a0000000000000000000000000000000000000000000000000000000008152600401808060200182810382526024815260200180610f136024913960400191505060405180910390fd5b600392909255600280546001600160a01b03199081166001600160a01b03938416179091556001805490911692821692909217909155811661027c576040517f08c379a0000000000000000000000000000000000000000000000000000000008152600401808060200182810382526034815260200180610edf6034913960400191505060405180910390fd5b600580546001600160a01b0319166001600160a01b0392909216919091179055506102aa92505050565b3390565b610c26806102b96000396000f3fe6080604052600436106100a75760003560e01c80638f32d59b116100645780638f32d59b1461017a578063bf583903146101a3578063bff99c6c146101b8578063ec8ac4d8146101cd578063f2fde38b146101f3578063fc0c546a14610226576100a7565b80632c4e722e146100b957806334fcf437146100e05780634042b66f1461010a578063521eb2731461011f578063715018a6146101505780638da5cb5b14610165575b6100b76100b261023b565b61023f565b005b3480156100c557600080fd5b506100ce610361565b60408051918252519081900360200190f35b3480156100ec57600080fd5b506100b76004803603602081101561010357600080fd5b5035610367565b34801561011657600080fd5b506100ce6103c5565b34801561012b57600080fd5b506101346103cb565b604080516001600160a01b039092168252519081900360200190f35b34801561015c57600080fd5b506100b76103da565b34801561017157600080fd5b50610134610482565b34801561018657600080fd5b5061018f610496565b604080519115158252519081900360200190f35b3480156101af57600080fd5b506100ce6104bf565b3480156101c457600080fd5b506101346105d8565b6100b7600480360360208110156101e357600080fd5b50356001600160a01b031661023f565b3480156101ff57600080fd5b506100b76004803603602081101561021657600080fd5b50356001600160a01b03166105e7565b34801561023257600080fd5b5061013461064c565b3390565b60005460ff16610296576040805162461bcd60e51b815260206004820152601f60248201527f5265656e7472616e637947756172643a207265656e7472616e742063616c6c00604482015290519081900360640190fd5b6000805460ff19169055346102ab828261065b565b60006102b6826106f6565b6004549091506102cc908363ffffffff61071316565b6004556102d98382610774565b826001600160a01b03166102eb61023b565b6001600160a01b03167f6faf93231a456e552dbc9961f58d9713ee4f2e69d15f1975b050ef0911053a7b8484604051808381526020018281526020019250505060405180910390a361033d83836106f2565b61034561077e565b61034f83836106f2565b50506000805460ff1916600117905550565b60035490565b61036f610496565b6103c0576040805162461bcd60e51b815260206004820181905260248201527f4f776e61626c653a2063616c6c6572206973206e6f7420746865206f776e6572604482015290519081900360640190fd5b600355565b60045490565b6002546001600160a01b031690565b6103e2610496565b610433576040805162461bcd60e51b815260206004820181905260248201527f4f776e61626c653a2063616c6c6572206973206e6f7420746865206f776e6572604482015290519081900360640190fd5b600080546040516101009091046001600160a01b0316907f8be0079c531659141344cd1fd0a4f28419497f9722a3daafe3b4186f6b6457e0908390a360008054610100600160a81b0319169055565b60005461010090046001600160a01b031690565b6000805461010090046001600160a01b03166104b061023b565b6001600160a01b031614905090565b60006105d36104cc61064c565b600554604080516370a0823160e01b81526001600160a01b039283166004820152905192909116916370a0823191602480820192602092909190829003018186803b15801561051a57600080fd5b505afa15801561052e573d6000803e3d6000fd5b505050506040513d602081101561054457600080fd5b505161054e61064c565b60055460408051636eb1769f60e11b81526001600160a01b0392831660048201523060248201529051929091169163dd62ed3e91604480820192602092909190829003018186803b1580156105a257600080fd5b505afa1580156105b6573d6000803e3d6000fd5b505050506040513d60208110156105cc57600080fd5b50516107b7565b905090565b6005546001600160a01b031690565b6105ef610496565b610640576040805162461bcd60e51b815260206004820181905260248201527f4f776e61626c653a2063616c6c6572206973206e6f7420746865206f776e6572604482015290519081900360640190fd5b610649816107cd565b50565b6001546001600160a01b031690565b6001600160a01b0382166106a05760405162461bcd60e51b815260040180806020018281038252602a815260200180610b9e602a913960400191505060405180910390fd5b806106f2576040805162461bcd60e51b815260206004820152601960248201527f43726f776473616c653a20776569416d6f756e74206973203000000000000000604482015290519081900360640190fd5b5050565b600061070d6003548361087890919063ffffffff16565b92915050565b60008282018381101561076d576040805162461bcd60e51b815260206004820152601b60248201527f536166654d6174683a206164646974696f6e206f766572666c6f770000000000604482015290519081900360640190fd5b9392505050565b6106f282826108d1565b6002546040516001600160a01b03909116903480156108fc02916000818181858888f19350505050158015610649573d6000803e3d6000fd5b60008183106107c6578161076d565b5090919050565b6001600160a01b0381166108125760405162461bcd60e51b8152600401808060200182810382526026815260200180610b576026913960400191505060405180910390fd5b600080546040516001600160a01b038085169361010090930416917f8be0079c531659141344cd1fd0a4f28419497f9722a3daafe3b4186f6b6457e091a3600080546001600160a01b0390921661010002610100600160a81b0319909216919091179055565b6000826108875750600061070d565b8282028284828161089457fe5b041461076d5760405162461bcd60e51b8152600401808060200182810382526021815260200180610b7d6021913960400191505060405180910390fd5b6005546106f2906001600160a01b031683836108eb61064c565b6001600160a01b031692919063ffffffff61090216565b604080516001600160a01b0385811660248301528416604482015260648082018490528251808303909101815260849091019091526020810180516001600160e01b03166323b872dd60e01b17905261095c908590610962565b50505050565b610974826001600160a01b0316610b1a565b6109c5576040805162461bcd60e51b815260206004820152601f60248201527f5361666545524332303a2063616c6c20746f206e6f6e2d636f6e747261637400604482015290519081900360640190fd5b60006060836001600160a01b0316836040518082805190602001908083835b60208310610a035780518252601f1990920191602091820191016109e4565b6001836020036101000a0380198251168184511680821785525050505050509050019150506000604051808303816000865af19150503d8060008114610a65576040519150601f19603f3d011682016040523d82523d6000602084013e610a6a565b606091505b509150915081610ac1576040805162461bcd60e51b815260206004820181905260248201527f5361666545524332303a206c6f772d6c6576656c2063616c6c206661696c6564604482015290519081900360640190fd5b80511561095c57808060200190516020811015610add57600080fd5b505161095c5760405162461bcd60e51b815260040180806020018281038252602a815260200180610bc8602a913960400191505060405180910390fd5b6000813f7fc5d2460186f7233c927e7db2dcc703c0e500b653ca82273b7bfad8045d85a470818114801590610b4e57508115155b94935050505056fe4f776e61626c653a206e6577206f776e657220697320746865207a65726f2061646472657373536166654d6174683a206d756c7469706c69636174696f6e206f766572666c6f7743726f776473616c653a2062656e656669636961727920697320746865207a65726f20616464726573735361666545524332303a204552433230206f7065726174696f6e20646964206e6f742073756363656564a265627a7a72315820f177a4848e44e3e54e52a5cbb5b8d36140dfaebefb5637610e16e2c86faa8db564736f6c63430005100032416c6c6f77616e636543726f776473616c653a20746f6b656e2077616c6c657420697320746865207a65726f206164647265737343726f776473616c653a20746f6b656e20697320746865207a65726f206164647265737343726f776473616c653a2077616c6c657420697320746865207a65726f2061646472657373",
  "source": "pragma solidity 0.5.16;\n\nimport \"./Crowdsale.sol\";\nimport \"./AllowanceCrowdsale.sol\";\nimport \"@openzeppelin/contracts/token/ERC20/ERC20.sol\";\n\n\ncontract PresaleCrowdsale is AllowanceCrowdsale {\n  constructor(\n    uint256 _rate,\n    address payable _wallet,\n    ERC20 _token,\n    address _tokenWallet\n  )\n    Crowdsale(_rate, _wallet, _token)\n    AllowanceCrowdsale(_tokenWallet)\n    public\n  {}\n}",
  "sourcePath": "/home/miguel/Documentos/matrixcoin/contracts/PresaleCrowdsale.sol",
  "compiler": {
    "name": "solc",
    "version": "0.5.16+commit.9c3226ce.Emscripten.clang"
  },
  "schemaVersion": "3.2.0",
  "updatedAt": "2020-06-17T02:04:44.769Z",
  "networkType": "ethereum",
  "devdoc": {
    "methods": {
      "buyTokens(address)": {
        "details": "low level token purchase ***DO NOT OVERRIDE*** This function has a non-reentrancy guard, so it shouldn't be called by another `nonReentrant` function.",
        "params": {
          "beneficiary": "Recipient of the token purchase"
        }
      },
      "isOwner()": {
        "details": "Returns true if the caller is the current owner."
      },
      "owner()": {
        "details": "Returns the address of the current owner."
      },
      "rate()": {
        "return": "the number of token units a buyer gets per wei."
      },
      "remainingTokens()": {
        "details": "Checks the amount of tokens left in the allowance.",
        "return": "Amount of tokens left in the allowance"
      },
      "renounceOwnership()": {
        "details": "Leaves the contract without owner. It will not be possible to call `onlyOwner` functions anymore. Can only be called by the current owner.     * NOTE: Renouncing ownership will leave the contract without an owner, thereby removing any functionality that is only available to the owner."
      },
      "token()": {
        "return": "the token being sold."
      },
      "tokenWallet()": {
        "return": "the address of the wallet that will hold the tokens."
      },
      "transferOwnership(address)": {
        "details": "Transfers ownership of the contract to a new account (`newOwner`). Can only be called by the current owner."
      },
      "wallet()": {
        "return": "the address where funds are collected."
      },
      "weiRaised()": {
        "return": "the amount of wei raised."
      }
    }
  },
  "userdoc": {
    "methods": {}
  }
}