{
  "contractName": "PresaleCrowdsale",
  "abi": [
    {
      "inputs": [
        {
          "internalType": "uint256",
          "name": "_rate",
          "type": "uint256"
        },
        {
          "internalType": "address payable",
          "name": "_wallet",
          "type": "address"
        },
        {
          "internalType": "contract ERC20",
          "name": "_token",
          "type": "address"
        },
        {
          "internalType": "address",
          "name": "_tokenWallet",
          "type": "address"
        }
      ],
      "payable": false,
      "stateMutability": "nonpayable",
      "type": "constructor"
    },
    {
      "anonymous": false,
      "inputs": [
        {
          "indexed": true,
          "internalType": "address",
          "name": "purchaser",
          "type": "address"
        },
        {
          "indexed": true,
          "internalType": "address",
          "name": "beneficiary",
          "type": "address"
        },
        {
          "indexed": false,
          "internalType": "uint256",
          "name": "value",
          "type": "uint256"
        },
        {
          "indexed": false,
          "internalType": "uint256",
          "name": "amount",
          "type": "uint256"
        }
      ],
      "name": "TokensPurchased",
      "type": "event"
    },
    {
      "anonymous": false,
      "inputs": [
        {
          "indexed": true,
          "internalType": "address",
          "name": "account",
          "type": "address"
        }
      ],
      "name": "WhitelistAdminAdded",
      "type": "event"
    },
    {
      "anonymous": false,
      "inputs": [
        {
          "indexed": true,
          "internalType": "address",
          "name": "account",
          "type": "address"
        }
      ],
      "name": "WhitelistAdminRemoved",
      "type": "event"
    },
    {
      "anonymous": false,
      "inputs": [
        {
          "indexed": true,
          "internalType": "address",
          "name": "account",
          "type": "address"
        }
      ],
      "name": "WhitelistedAdded",
      "type": "event"
    },
    {
      "anonymous": false,
      "inputs": [
        {
          "indexed": true,
          "internalType": "address",
          "name": "account",
          "type": "address"
        }
      ],
      "name": "WhitelistedRemoved",
      "type": "event"
    },
    {
      "payable": true,
      "stateMutability": "payable",
      "type": "fallback"
    },
    {
      "constant": false,
      "inputs": [
        {
          "internalType": "address",
          "name": "account",
          "type": "address"
        }
      ],
      "name": "addWhitelistAdmin",
      "outputs": [],
      "payable": false,
      "stateMutability": "nonpayable",
      "type": "function"
    },
    {
      "constant": false,
      "inputs": [
        {
          "internalType": "address",
          "name": "account",
          "type": "address"
        }
      ],
      "name": "addWhitelisted",
      "outputs": [],
      "payable": false,
      "stateMutability": "nonpayable",
      "type": "function"
    },
    {
      "constant": false,
      "inputs": [
        {
          "internalType": "address",
          "name": "beneficiary",
          "type": "address"
        }
      ],
      "name": "buyTokens",
      "outputs": [],
      "payable": true,
      "stateMutability": "payable",
      "type": "function"
    },
    {
      "constant": true,
      "inputs": [
        {
          "internalType": "address",
          "name": "account",
          "type": "address"
        }
      ],
      "name": "isWhitelistAdmin",
      "outputs": [
        {
          "internalType": "bool",
          "name": "",
          "type": "bool"
        }
      ],
      "payable": false,
      "stateMutability": "view",
      "type": "function"
    },
    {
      "constant": true,
      "inputs": [
        {
          "internalType": "address",
          "name": "account",
          "type": "address"
        }
      ],
      "name": "isWhitelisted",
      "outputs": [
        {
          "internalType": "bool",
          "name": "",
          "type": "bool"
        }
      ],
      "payable": false,
      "stateMutability": "view",
      "type": "function"
    },
    {
      "constant": true,
      "inputs": [],
      "name": "rate",
      "outputs": [
        {
          "internalType": "uint256",
          "name": "",
          "type": "uint256"
        }
      ],
      "payable": false,
      "stateMutability": "view",
      "type": "function"
    },
    {
      "constant": true,
      "inputs": [],
      "name": "remainingTokens",
      "outputs": [
        {
          "internalType": "uint256",
          "name": "",
          "type": "uint256"
        }
      ],
      "payable": false,
      "stateMutability": "view",
      "type": "function"
    },
    {
      "constant": false,
      "inputs": [
        {
          "internalType": "address",
          "name": "account",
          "type": "address"
        }
      ],
      "name": "removeWhitelisted",
      "outputs": [],
      "payable": false,
      "stateMutability": "nonpayable",
      "type": "function"
    },
    {
      "constant": false,
      "inputs": [],
      "name": "renounceWhitelistAdmin",
      "outputs": [],
      "payable": false,
      "stateMutability": "nonpayable",
      "type": "function"
    },
    {
      "constant": false,
      "inputs": [],
      "name": "renounceWhitelisted",
      "outputs": [],
      "payable": false,
      "stateMutability": "nonpayable",
      "type": "function"
    },
    {
      "constant": true,
      "inputs": [],
      "name": "token",
      "outputs": [
        {
          "internalType": "contract IERC20",
          "name": "",
          "type": "address"
        }
      ],
      "payable": false,
      "stateMutability": "view",
      "type": "function"
    },
    {
      "constant": true,
      "inputs": [],
      "name": "tokenWallet",
      "outputs": [
        {
          "internalType": "address",
          "name": "",
          "type": "address"
        }
      ],
      "payable": false,
      "stateMutability": "view",
      "type": "function"
    },
    {
      "constant": true,
      "inputs": [],
      "name": "wallet",
      "outputs": [
        {
          "internalType": "address payable",
          "name": "",
          "type": "address"
        }
      ],
      "payable": false,
      "stateMutability": "view",
      "type": "function"
    },
    {
      "constant": true,
      "inputs": [],
      "name": "weiRaised",
      "outputs": [
        {
          "internalType": "uint256",
          "name": "",
          "type": "uint256"
        }
      ],
      "payable": false,
      "stateMutability": "view",
      "type": "function"
    }
  ],
  "bytecode": "0x60806040523480156200001157600080fd5b50604051620013db380380620013db833981810160405260808110156200003757600080fd5b50805160208201516040830151606090930151919290918084848462000078620000696001600160e01b036200027a16565b6001600160e01b036200027e16565b6002805460ff1916600117905582620000f257604080517f08c379a000000000000000000000000000000000000000000000000000000000815260206004820152601460248201527f43726f776473616c653a20726174652069732030000000000000000000000000604482015290519081900360640190fd5b6001600160a01b03821662000153576040517f08c379a0000000000000000000000000000000000000000000000000000000008152600401808060200182810382526025815260200180620013b66025913960400191505060405180910390fd5b6001600160a01b038116620001b4576040517f08c379a0000000000000000000000000000000000000000000000000000000008152600401808060200182810382526024815260200180620013706024913960400191505060405180910390fd5b600492909255600380546001600160a01b0319166001600160a01b0392831617905560028054610100600160a81b031916610100938316939093029290921790915581166200024f576040517f08c379a00000000000000000000000000000000000000000000000000000000081526004018080602001828103825260348152602001806200133c6034913960400191505060405180910390fd5b600680546001600160a01b0319166001600160a01b039290921691909117905550620003fa92505050565b3390565b62000299816000620002d060201b62000a881790919060201c565b6040516001600160a01b038216907f22380c05984257a1cb900161c713dd71d39e74820f1aea43bd3f1bdd2096129990600090a250565b620002e582826001600160e01b036200037716565b156200035257604080517f08c379a000000000000000000000000000000000000000000000000000000000815260206004820152601f60248201527f526f6c65733a206163636f756e7420616c72656164792068617320726f6c6500604482015290519081900360640190fd5b6001600160a01b0316600090815260209190915260409020805460ff19166001179055565b60006001600160a01b038216620003da576040517f08c379a0000000000000000000000000000000000000000000000000000000008152600401808060200182810382526022815260200180620013946022913960400191505060405180910390fd5b506001600160a01b03166000908152602091909152604090205460ff1690565b610f32806200040a6000396000f3fe6080604052600436106100dd5760003560e01c80637362d9c81161007f578063bff99c6c11610059578063bff99c6c14610299578063d6cd9473146102ae578063ec8ac4d8146102c3578063fc0c546a146102e9576100dd565b80637362d9c81461021e578063bb5f747b14610251578063bf58390314610284576100dd565b80633af32abf116100bb5780633af32abf1461017c5780634042b66f146101c35780634c5a628c146101d8578063521eb273146101ed576100dd565b806310154bad146100ef578063291d9549146101225780632c4e722e14610155575b6100ed6100e86102fe565b610302565b005b3480156100fb57600080fd5b506100ed6004803603602081101561011257600080fd5b50356001600160a01b0316610424565b34801561012e57600080fd5b506100ed6004803603602081101561014557600080fd5b50356001600160a01b031661047b565b34801561016157600080fd5b5061016a6104ca565b60408051918252519081900360200190f35b34801561018857600080fd5b506101af6004803603602081101561019f57600080fd5b50356001600160a01b03166104d0565b604080519115158252519081900360200190f35b3480156101cf57600080fd5b5061016a6104e9565b3480156101e457600080fd5b506100ed6104ef565b3480156101f957600080fd5b50610202610501565b604080516001600160a01b039092168252519081900360200190f35b34801561022a57600080fd5b506100ed6004803603602081101561024157600080fd5b50356001600160a01b0316610510565b34801561025d57600080fd5b506101af6004803603602081101561027457600080fd5b50356001600160a01b031661055f565b34801561029057600080fd5b5061016a610571565b3480156102a557600080fd5b5061020261068a565b3480156102ba57600080fd5b506100ed610699565b6100ed600480360360208110156102d957600080fd5b50356001600160a01b0316610302565b3480156102f557600080fd5b506102026106a9565b3390565b60025460ff16610359576040805162461bcd60e51b815260206004820152601f60248201527f5265656e7472616e637947756172643a207265656e7472616e742063616c6c00604482015290519081900360640190fd5b6002805460ff191690553461036e82826106bd565b60006103798261070f565b60055490915061038f908363ffffffff61072616565b60055561039c8382610787565b826001600160a01b03166103ae6102fe565b6001600160a01b03167f6faf93231a456e552dbc9961f58d9713ee4f2e69d15f1975b050ef0911053a7b8484604051808381526020018281526020019250505060405180910390a3610400838361070b565b610408610791565b610412838361070b565b50506002805460ff1916600117905550565b61043461042f6102fe565b61055f565b61046f5760405162461bcd60e51b8152600401808060200182810382526040815260200180610e6a6040913960400191505060405180910390fd5b610478816107ca565b50565b61048661042f6102fe565b6104c15760405162461bcd60e51b8152600401808060200182810382526040815260200180610e6a6040913960400191505060405180910390fd5b61047881610812565b60045490565b60006104e360018363ffffffff61085a16565b92915050565b60055490565b6104ff6104fa6102fe565b6108c1565b565b6003546001600160a01b031690565b61051b61042f6102fe565b6105565760405162461bcd60e51b8152600401808060200182810382526040815260200180610e6a6040913960400191505060405180910390fd5b61047881610909565b60006104e3818363ffffffff61085a16565b600061068561057e6106a9565b600654604080516370a0823160e01b81526001600160a01b039283166004820152905192909116916370a0823191602480820192602092909190829003018186803b1580156105cc57600080fd5b505afa1580156105e0573d6000803e3d6000fd5b505050506040513d60208110156105f657600080fd5b50516106006106a9565b60065460408051636eb1769f60e11b81526001600160a01b0392831660048201523060248201529051929091169163dd62ed3e91604480820192602092909190829003018186803b15801561065457600080fd5b505afa158015610668573d6000803e3d6000fd5b505050506040513d602081101561067e57600080fd5b5051610951565b905090565b6006546001600160a01b031690565b6104ff6106a46102fe565b610812565b60025461010090046001600160a01b031690565b6106c6826104d0565b6107015760405162461bcd60e51b8152600401808060200182810382526041815260200180610dc56041913960600191505060405180910390fd5b61070b8282610967565b5050565b60006104e3600454836109fe90919063ffffffff16565b600082820183811015610780576040805162461bcd60e51b815260206004820152601b60248201527f536166654d6174683a206164646974696f6e206f766572666c6f770000000000604482015290519081900360640190fd5b9392505050565b61070b8282610a57565b6003546040516001600160a01b03909116903480156108fc02916000818181858888f19350505050158015610478573d6000803e3d6000fd5b6107db60018263ffffffff610a8816565b6040516001600160a01b038216907fee1504a83b6d4a361f4c1dc78ab59bfa30d6a3b6612c403e86bb01ef2984295f90600090a250565b61082360018263ffffffff610b0916565b6040516001600160a01b038216907f270d9b30cf5b0793bbfd54c9d5b94aeb49462b8148399000265144a8722da6b690600090a250565b60006001600160a01b0382166108a15760405162461bcd60e51b8152600401808060200182810382526022815260200180610e486022913960400191505060405180910390fd5b506001600160a01b03166000908152602091909152604090205460ff1690565b6108d260008263ffffffff610b0916565b6040516001600160a01b038216907f0a8eb35e5ca14b3d6f28e4abf2f128dbab231a58b56e89beb5d636115001e16590600090a250565b61091a60008263ffffffff610a8816565b6040516001600160a01b038216907f22380c05984257a1cb900161c713dd71d39e74820f1aea43bd3f1bdd2096129990600090a250565b60008183106109605781610780565b5090919050565b6001600160a01b0382166109ac5760405162461bcd60e51b815260040180806020018281038252602a815260200180610eaa602a913960400191505060405180910390fd5b8061070b576040805162461bcd60e51b815260206004820152601960248201527f43726f776473616c653a20776569416d6f756e74206973203000000000000000604482015290519081900360640190fd5b600082610a0d575060006104e3565b82820282848281610a1a57fe5b04146107805760405162461bcd60e51b8152600401808060200182810382526021815260200180610e276021913960400191505060405180910390fd5b60065461070b906001600160a01b03168383610a716106a9565b6001600160a01b031692919063ffffffff610b7016565b610a92828261085a565b15610ae4576040805162461bcd60e51b815260206004820152601f60248201527f526f6c65733a206163636f756e7420616c72656164792068617320726f6c6500604482015290519081900360640190fd5b6001600160a01b0316600090815260209190915260409020805460ff19166001179055565b610b13828261085a565b610b4e5760405162461bcd60e51b8152600401808060200182810382526021815260200180610e066021913960400191505060405180910390fd5b6001600160a01b0316600090815260209190915260409020805460ff19169055565b604080516001600160a01b0385811660248301528416604482015260648082018490528251808303909101815260849091019091526020810180516001600160e01b03166323b872dd60e01b179052610bca908590610bd0565b50505050565b610be2826001600160a01b0316610d88565b610c33576040805162461bcd60e51b815260206004820152601f60248201527f5361666545524332303a2063616c6c20746f206e6f6e2d636f6e747261637400604482015290519081900360640190fd5b60006060836001600160a01b0316836040518082805190602001908083835b60208310610c715780518252601f199092019160209182019101610c52565b6001836020036101000a0380198251168184511680821785525050505050509050019150506000604051808303816000865af19150503d8060008114610cd3576040519150601f19603f3d011682016040523d82523d6000602084013e610cd8565b606091505b509150915081610d2f576040805162461bcd60e51b815260206004820181905260248201527f5361666545524332303a206c6f772d6c6576656c2063616c6c206661696c6564604482015290519081900360640190fd5b805115610bca57808060200190516020811015610d4b57600080fd5b5051610bca5760405162461bcd60e51b815260040180806020018281038252602a815260200180610ed4602a913960400191505060405180910390fd5b6000813f7fc5d2460186f7233c927e7db2dcc703c0e500b653ca82273b7bfad8045d85a470818114801590610dbc57508115155b94935050505056fe57686974656c69737443726f776473616c653a2062656e656669636961727920646f65736e27742068617665207468652057686974656c697374656420726f6c65526f6c65733a206163636f756e7420646f6573206e6f74206861766520726f6c65536166654d6174683a206d756c7469706c69636174696f6e206f766572666c6f77526f6c65733a206163636f756e7420697320746865207a65726f206164647265737357686974656c69737441646d696e526f6c653a2063616c6c657220646f6573206e6f742068617665207468652057686974656c69737441646d696e20726f6c6543726f776473616c653a2062656e656669636961727920697320746865207a65726f20616464726573735361666545524332303a204552433230206f7065726174696f6e20646964206e6f742073756363656564a265627a7a7231582011b766759a0942698bec09579d6a8266c1e4cad9559c7458f9ea84ef825678f764736f6c63430005100032416c6c6f77616e636543726f776473616c653a20746f6b656e2077616c6c657420697320746865207a65726f206164647265737343726f776473616c653a20746f6b656e20697320746865207a65726f2061646472657373526f6c65733a206163636f756e7420697320746865207a65726f206164647265737343726f776473616c653a2077616c6c657420697320746865207a65726f2061646472657373",
  "source": "pragma solidity 0.5.16;\n\nimport \"@openzeppelin/contracts/crowdsale/Crowdsale.sol\";\nimport \"@openzeppelin/contracts/token/ERC20/ERC20.sol\";\nimport \"@openzeppelin/contracts/crowdsale/emission/AllowanceCrowdsale.sol\";\nimport \"@openzeppelin/contracts/crowdsale/validation/WhitelistCrowdsale.sol\";\n\n\ncontract PresaleCrowdsale is AllowanceCrowdsale, WhitelistCrowdsale {\n  constructor(\n    uint256 _rate,\n    address payable _wallet,\n    ERC20 _token,\n    address _tokenWallet\n  )\n    Crowdsale(_rate, _wallet, _token)\n    AllowanceCrowdsale(_tokenWallet)\n    public\n  {}\n}",
  "sourcePath": "/home/xperiafan13/Documentos/Matrix/contract/contracts/PresaleCrowdsale.sol",
  "compiler": {
    "name": "solc",
    "version": "0.5.16+commit.9c3226ce.Emscripten.clang"
  },
  "schemaVersion": "3.0.23",
  "updatedAt": "2020-05-07T04:53:17.204Z",
  "networkType": "ethereum",
  "devdoc": {
    "methods": {
      "buyTokens(address)": {
        "details": "low level token purchase ***DO NOT OVERRIDE*** This function has a non-reentrancy guard, so it shouldn't be called by another `nonReentrant` function.",
        "params": {
          "beneficiary": "Recipient of the token purchase"
        }
      },
      "rate()": {
        "return": "the number of token units a buyer gets per wei."
      },
      "remainingTokens()": {
        "details": "Checks the amount of tokens left in the allowance.",
        "return": "Amount of tokens left in the allowance"
      },
      "token()": {
        "return": "the token being sold."
      },
      "tokenWallet()": {
        "return": "the address of the wallet that will hold the tokens."
      },
      "wallet()": {
        "return": "the address where funds are collected."
      },
      "weiRaised()": {
        "return": "the amount of wei raised."
      }
    }
  },
  "userdoc": {
    "methods": {}
  }
}